:020000040000FA
:1000000083161F308500003086008312860185012B
:1000100005180F28851815280519222808282E20CC
:10002000FF3086002E2086010828803086001828A0
:1000300006181D28860C34201828861B0828860DD3
:1000400034201D282E20A53086002E20860E08285C
:100050003F30A0009D30A1003A2008001F30A000D2
:100060004F30A1003A200800CF30A0000830A10096
:0E0070003A200800A00B3D28A10B3A280800FA
:02007E0000344C
:0200800000344A
:02400E00F93F78
:00000001FF
