:020000040000FA
:1000000083161F308500003086008312860185012B
:1000100005181328851819280519262885192C284C
:10002000051A422808285120FF30860051208601F9
:100030000828803086001C2806182128860C5720A6
:100040001C28861B0828860D572021285120A53002
:1000500086005120860E08285720813086005120C6
:10006000423086005120243086005120183086000E
:1000700051202430860051204230860051208130AA
:10008000860008288030860045285720860C572097
:10009000861F452808283F30A0009D30A1005D2024
:1000A00008001F30A0004F30A1005D200800CF30B5
:1000B000A0000830A1005D200800A00B6028A10B63
:0400C0005D280800AF
:0400C40000340034D0
:02400E00F93F78
:00000001FF
